:020000040000FA
:10000000680120206D0100007101000073010000F3
:1000100000000000000000000000000000000000E0
:10002000000000000000000000000000750100005A
:1000300000000000000000007701000079010000CE
:100040007B0100007B0100007B0100007B010000C0
:100050007B0100007B0100007B0100007B010000B0
:10006000000000007B0100007B0100000000000098
:10007000000000007B0100007B0100007B0100000C
:100080007B0100007B0100007B0100007B01000080
:100090007B0100007B010000000000000000000068
:1000A0007B0100007B010000000000000000000058
:1000B0007B010000000000007B0100007B010000CC
:1000C00000F002F800F042F812A030C808382418F6
:1000D0002D18AC4201D100F039F80FCCA246AB4646
:1000E0000CA730CF2D1B083F3F197C427F1E544484
:1000F0002D090426F441641EAC4201D300F026F819
:100100000126334200D0FB1A3343984754465D46DC
:10011000DFE70000DC150000EC1500000000000027
:100120007047000000000000002300240025002686
:10013000103A01D378C1FBD8520700D330C100D5A3
:100140000B6070471FB51FBD10B510BD00F023F93F
:100150001146FFF7F7FF00F089FE00F03BF903B40A
:10016000FFF7F2FF03BC00F041F90000064800472A
:10017000FEE7FEE7FEE7FEE7FEE7FEE70348044989
:10018000024A044B70470000C100000068002020B4
:100190006801202068002020002203098B4273D3CD
:1001A000030A8B4258D3030B8B423CD3030C8B4284
:1001B00021D312E003460B437FD4002243088B4235
:1001C00074D303098B425FD3030A8B4244D3030BDE
:1001D0008B4228D3030C8B420DD30902FF2212BAA3
:1001E000030C8B4202D31212090265D0030B8B421F
:1001F00019D300E0090AC30B8B4201D3CB03C01A09
:100200005241830B8B4201D38B03C01A5241430BE3
:100210008B4201D34B03C01A5241030B8B4201D3D3
:100220000B03C01A5241C30A8B4201D3CB02C01A3E
:100230005241830A8B4201D38B02C01A5241430AB6
:100240008B4201D34B02C01A5241030A8B4201D3A5
:100250000B02C01A5241CDD2C3098B4201D3CB014C
:10026000C01A524183098B4201D38B01C01A5241FB
:1002700043098B4201D34B01C01A524103098B42FF
:1002800001D30B01C01A5241C3088B4201D3CB00EA
:10029000C01A524183088B4201D38B00C01A5241CD
:1002A00043088B4201D34B00C01A5241411A00D27D
:1002B00001465241104670475DE0CA0F00D04942E6
:1002C000031000D3404253409C46002203098B4256
:1002D0002DD3030A8B4212D38901FC2212BA030ADE
:1002E0008B420CD3890192118B4208D38901921160
:1002F0008B4204D389013AD0921100E08909C309E5
:100300008B4201D3CB01C01A524183098B4201D3E6
:100310008B01C01A524143098B4201D34B01C01AD1
:10032000524103098B4201D30B01C01A5241C30849
:100330008B4201D3CB00C01A524183088B4201D3B8
:100340008B00C01A5241D9D243088B4201D34B00D3
:10035000C01A5241411A00D201465241104663462A
:100360005B1001D34042002B00D5494270476346E1
:100370005B1000D3404201B50449002802DC491C4F
:10038000084000E00846C046C04602BDFFFFFF7FB0
:10039000704770477047754600F024F8AE46050078
:1003A00069465346C008C000854618B020B5FFF71F
:1003B000E5FE60BCB64600260027C0C5C0C5C0C566
:1003C000C0C5C0C5C0C5C0C5C0C5403D490849007D
:1003D0008D46704710B50446C046C0462046FFF71C
:1003E000BEFE10BD004870470000202001491820C3
:1003F000ABBEFEE7260002007047000080B5014654
:100400000248012200F04AF980BDC0460040084081
:10041000811E091F00BFFCD270470000F0B584B0F8
:10042000012422022A4B1968039291431960494919
:100430000D686D04FCD5457E25409E69A643741960
:100440009C612024045D03252C40DE69AE433419F1
:10045000DC61204C256805262660466A37681F62E5
:1004600076685E6207262E402660C4697F252D02CD
:10047000DE69AE436406640C3419DC6107684568C4
:1004800082680092C66802690192426902929A6982
:10049000114C14403A07120B2D03ADB2AA18324387
:1004A000009D2D072D0D1543019A1543029A154302
:1004B000007E2843094A0240101998611868039A7F
:1004C0001043186008688005FCD504B0F0BDC04634
:1004D00008010B40001340408D00F0FF72FF0F0039
:1004E000F0B5124B1D46083D2E680124A6432E6030
:1004F0000326360330401F68B74338181860186861
:10050000FF26B043C9B2401818602868204328600D
:1005100018682107002A06D0084318600D480168B2
:10052000C905FCD5F0BD88431860F0BD10010B4033
:1005300007498860074802689202FCD5012212042C
:100540000B6813430B600168C906FCD57047C046B1
:1005500004010B4004020B40F0B53C4A82183C4BAE
:10056000C31808794E793B4D3B4C002E23D02028F0
:1005700004D00526F601002803D003E0374E0028FA
:1005800000D18826576F2F4037435767976F2F400A
:1005900037439767566B26405663966B26409663A3
:1005A0000026566596658F26F6435F6837405F6084
:1005B0009F6837409F608E79096820280BD00028FB
:1005C00019D1491E5160D76E2F4088210F43D7663D
:1005D0001746703719E0491E5160D16E29401F4FF0
:1005E0003943D166116F2940394311670121490709
:1005F0001B4D174609E049085160D76E2F40052171
:10060000C9010F43D766174670373C682C400C432E
:100610003C60D16A104C2140D162116B21401163C2
:100620000021D16411658F21C943D46F0C40D46778
:100630001C680C401C600643BD2030401168094B0B
:100640000B40C018801C1060F0BDC04604180000AC
:100650008418000024493E008888FDFF0104000042
:10066000FFFFFFCF4000FFCF10B507239B041940C9
:1006700092008018024A84589C436118815010BD32
:100680003018000010B5029CA40000191143194352
:10069000014A815010BDC0465018000092008018D9
:1006A000014A81507047C0461018000010B5012261
:1006B000120383180C789C604B7883508978014A28
:1006C000815010BD0C110000F0B581B000280ED093
:1006D0000446084D084E05E030467843FFF798FE83
:1006E000E41B04D0AC422746F6D32F46F4E701B012
:1006F000F0BDC046B7D100008038010070B50028B9
:100700000DD00446064D05E050207043FFF780FEF3
:10071000A41B04D0AC422646F6D32E46F4E770BDA7
:100720003333330370B50E4D2868800215D401248D
:1007300066050520FFF7C8FF2868304208D1286801
:10074000304205D12868304202D128683042F3D0C7
:100750000520FFF7B9FF204670BD002070BDC046E0
:1007600080330A4080B50121CB028903A04A0028CA
:1007700002D41360116102E0136111604042C0B203
:10078000FFF73CFE80BDC046B0B5B02000F050FA87
:10079000102000F04DFA0025284600F049FA002408
:1007A000204600F077FA681C45B2002DF7D5B1203D
:1007B00000F03EFA102000F03BFA204600F038FA34
:1007C0000025284600F066FA601C44B2002CF7D5DC
:1007D000B22000F02DFA102000F02AFA284600F08E
:1007E00027FA0024204600F055FA681C45B2002D77
:1007F000F7D5B32000F01CFA102000F019FA2046BB
:1008000000F016FA0025284600F044FA601C44B2B5
:10081000002CF7D5B42000F00BFA102000F008FAF5
:10082000284600F005FA0024204600F033FA681C40
:1008300045B2002DF7D5B52000F0FAF9102000F0F0
:10084000F7F9204600F0F4F90025284600F022FAD6
:10085000601C44B2002CF7D5B62000F0E9F9102056
:1008600000F0E6F9284600F0E3F90024204600F005
:1008700011FA681C45B2002DF7D5B72000F0D8F961
:10088000102000F0D5F9204600F0D2F9002000F049
:1008900001FA601C44B2002CF8D5B0BDF0B581B0AF
:1008A00004460127F90640B2F94E0028009101D410
:1008B000316100E0316002252846FFF71FFFBF06C7
:1008C00037602846FFF71AFF37612846FFF716FF03
:1008D000600602D40098306101E000983060022583
:1008E0002846FFF70BFF37602846FFF707FF376101
:1008F0002846FFF703FFA00602D40098306101E00C
:100900000098306002252846FFF7F8FE3760284639
:10091000FFF7F4FE37612846FFF7F0FEE00602D449
:100920000098306101E00098306002252846FFF70A
:10093000E5FE37602846FFF7E1FE37612846FFF7FE
:10094000DDFE200702D40098306101E0009830609D
:1009500002252846FFF7D2FE37602846FFF7CEFE75
:1009600037612846FFF7CAFE600702D4009830615D
:1009700001E00098306002252846FFF7BFFE37608F
:100980002846FFF7BBFE37612846FFF7B7FEA007F2
:1009900002D40098306101E00098306002252846BA
:1009A000FFF7ACFE37602846FFF7A8FE3761284600
:1009B000FFF7A4FEE00702D10098306101E0009843
:1009C000306002242046FFF799FE37602046FFF78B
:1009D00095FE37612046FFF791FE37602046FFF70E
:1009E0008DFE37612046FFF789FE01B0F0BDC0469D
:1009F00090320A4080B5AE2000F01AF9D52000F000
:100A000017F9802000F014F9A82000F011F93F2018
:100A100000F00EF9D32000F00BF9002000F008F9E7
:100A2000402000F005F9A12000F002F9C82000F0F4
:100A3000FFF8DA2000F0FCF8122000F0F9F881202D
:100A400000F0F6F8CF2000F0F3F8D92000F0F0F82D
:100A5000F12000F0EDF8DB2000F0EAF8302000F0A3
:100A6000E7F8A42000F0E4F8A62000F0E1F88D20DB
:100A700000F0DEF8142000F0DBF8AF2000F0D8F82A
:100A8000FFF782FE80BD0000F0B583B016460C462D
:100A9000400002907E30B02101910843C0B200F0C6
:100AA000C7F8E700083FF8B204091034204600F008
:100AB000BFF808253D40284600F0BAF8300121492A
:100AC0004618214FF05D00F0E5F8F619707800F057
:100AD000E1F8B07800F0DEF8F07800F0DBF830797B
:100AE00000F0D8F8707900F0D5F8B07900F0D2F8BD
:100AF000F07900F0CFF80298401E01990843C0B287
:100B000000F096F8204600F093F8284600F090F8A0
:100B1000307A00F0BFF8707A00F0BCF8B07A00F0DC
:100B2000B9F8F07A00F0B6F8307B00F0B3F8707BDB
:100B300000F0B0F8B07B00F0ADF8F07B00F0AAF860
:100B400003B0F0BDC610000000FEFFFFF0B587B097
:100B5000069314460D46002A049005D405942B22D2
:100B60002946FFF791FF05E02D222946FFF78CFF6C
:100B700064420594069800283FD00698471E4142DB
:100B80000391801E0190681C029000261C4D13E00A
:100B9000012102988419059800F09AF90A21FFF7BB
:100BA000FBFA30220A43E1B20498FFF76DFF7F1E83
:100BB000761C0698864220D0F04303998842E7D0FD
:100BC00003220199891B032901D2012105E03B463B
:100BD0009343012169431B1FFCD1069BC0181040A1
:100BE000D7D0012801D10A2005E0022802D07D20BB
:100BF000C00000E064204143CBE707B0F0BDC04631
:100C000010270000F0B581B00646107800280DD0FE
:100C100014460D4600277919C9B2C2B23046FFF713
:100C200033FF7F1CF8B2205C0028F4D101B0F0BD86
:100C3000F0B581B000900125EE06434F3E600224DE
:100C40002046FFF75BFDAD063D602046FFF756FDF1
:100C50003E612046FFF752FD3D612046FFF74EFD05
:100C60007820FFF71BFE0020FFF718FE0098FFF723
:100C700015FE3E612046FFF741FD3D602046FFF72F
:100C80003DFD3E602046FFF739FD01B0F0BDC04696
:100C900090320A40F0B581B000900125EE062A4F4F
:100CA0003E6002242046FFF729FDAD063D60204648
:100CB000FFF724FD3E612046FFF720FD3D61204601
:100CC000FFF71CFD7820FFF7E9FD4020FFF7E6FD68
:100CD0000098FFF7E3FD3E612046FFF70FFD3D6002
:100CE0002046FFF70BFD3E602046FFF707FD01B0F1
:100CF000F0BDC0460F48002101604160852141667A
:100D0000012149030C4A11600C4981220A624A629E
:100D10000B4A826442650B48086008680860092035
:100D2000C00209490861032080060860074808647A
:100D30007047C04628804240D0120A40C4804240DA
:100D40008100020081000E0090320A400048000C31
:100D500070B582B0144C15492046FFF7A7FC144922
:100D60002046FFF7F9FB13480168134A0A4049215E
:100D7000C901511801600125009500262046314621
:100D800032463346FFF77EFC204631462A46FFF7BF
:100D90006BFC642120462A46FFF780FC07488560EB
:100DA0000221016002B070BD00400840B61600008C
:100DB000BC160000045808407F00FFFF00510840A7
:100DC00070B51548002404600F200002134D2968F7
:100DD000814301225002081828600320C1432B1FC1
:100DE0001E680E401E6069689143696011026A685E
:100DF0008A436A60000321462246FFF771FB0848D8
:100E0000FFF70CFB28681021014320208143296053
:100E10002046FFF78DFB70BD08030B4004010B401B
:100E2000C416000080B500F007F8FFF763FFFFF776
:100E3000C7FFFFF78DFF80BD80B5074807494160B8
:100E4000074A5160074B59600749016011601960FA
:100E50001020FFF7DDFA80BD00080A40030000B152
:100E600000280A400048084001000026FFF7DAFF8A
:100E7000FFF7C0FD012011A20146FFF7C3FE124C8F
:100E8000124D0DE0297048B2FFF76CFC00202A5685
:100E9000012007210323FFF759FE6420FFF714FC0C
:100EA000FFF740FC207029780128ECD1143148B2BA
:100EB0006428E7DD6320C143E4E7C04648656C6C05
:100EC0006F20576F72642100600020206100202095
:100ED00043088B421AD3002203098B4279D3030AB9
:100EE0008B425ED3030B8B4242D3030C8B4227D33E
:100EF0000902FF2212BA030C8B4202D3121209021A
:100F000003D0030B8B4233D31AE0D3E0411A804164
:100F1000401C704703460B4371D443088B42F5D302
:100F2000002203098B4254D3030A8B4239D3030BAB
:100F30008B421DD3030C8B4202D394466EE0090A08
:100F4000C30B8B4201D3CB03C01A5241830B8B429C
:100F500001D38B03C01A5241430B8B4201D34B0385
:100F6000C01A5241030B8B4201D30B03C01A5241EA
:100F7000C30A8B4201D3CB02C01A5241830A8B426F
:100F800001D38B02C01A5241430A8B4201D34B0258
:100F9000C01A5241030A8B4201D30B02C01A5241BC
:100FA000CDD2C3098B4201D3CB01C01A5241830970
:100FB0008B4201D38B01C01A524143098B4201D3AA
:100FC0004B01C01A524103098B4201D30B01C01AD5
:100FD0005241C3088B4201D3CB00C01A524183084F
:100FE0008B4201D38B00C01A524143088B4201D37C
:100FF0004B00C01A5241411A524110007047CA0FAB
:1010000000D04942031000D34042534000229C4686
:1010100003098B422DD3030A8B4212D38901FC2290
:1010200012BA030A8B420CD3890192118B4208D366
:10103000890192118B4204D3890137D0921100E0CB
:101040008909C3098B4201D3CB01C01A52418309DC
:101050008B4201D38B01C01A524143098B4201D309
:101060004B01C01A524103098B4201D30B01C01A34
:101070005241C3088B4201D3CB00C01A52418308AE
:101080008B4201D38B00C01A5241D9D243088B4204
:1010900001D34B00C01A5241411A00D201465241BD
:1010A000104663465B1000D34042704763465B10B6
:1010B00000D3404201B50021004201D0C943084697
:1010C000C046C04602BD0000000000000000000055
:1010D000000000000000000000F800000000000018
:1010E00000333000000000100C06100C0600000059
:1010F00000000000000040C07840C0784000043F7D
:1011000004043F040400007088FC0830000000184C
:1011100020FF211E0000F008F000E0180000002170
:101120001C031E211E0000F00888700000001E2114
:1011300023241927211010160E00000000000000C3
:10114000000000000000000000E0180402000000A1
:1011500000071820400000020418E00000000040D2
:10116000201807000000404080F08040400002024C
:10117000010F01020200000000F000000000010168
:10118000011F01010100000000000000000080B00C
:1011900070000000000000000000000000000001DE
:1011A0000101010101010000000000000000003009
:1011B00030000000000000000000806018040060A3
:1011C00018060100000000E010080810E000000F01
:1011D000102020100F00001010F800000000002068
:1011E000203F2020000000700808088870000030B0
:1011F0002824222130000030088888483000001858
:10120000202020110E000000C02010F80000000770
:101210000424243F240000F80888880808000019E6
:10122000212020110E0000E0108888180000000F17
:10123000112020110E0000380808C83808000000EE
:10124000003F000000000070880808887000001C43
:10125000222121221C0000E010080810E0000000FC
:10126000312222110F00000000C0C0000000000069
:10127000003030000000000000800000000000008E
:101280008060000000000000804020100800000185
:101290000204081020004040404040404000040448
:1012A0000404040404000008102040800000002012
:1012B000100804020100007048080808F00000004F
:1012C000003036010000C030C828E810E0000718E0
:1012D000272423140B000000C038E0000000203C4D
:1012E00023020227382008F8888888700000203FF1
:1012F000202020110E00C030080808083800071808
:1013000020202010080008F808080810E000203FFE
:10131000202020100F0008F88888E8081000203FDF
:1013200020202320180008F88888E8081000203FB3
:10133000200003000000C03008080838000007182B
:101340002020221E020008F808000008F808203FAC
:10135000210101213F20000808F8080800000020B2
:10136000203F2020000000000808F8080800C08086
:1013700080807F00000008F888C028180800203FFF
:1013800020012638200008F8080000000000203F57
:1013900020202020300008F8F800F8F80800203F4E
:1013A000003F003F200008F830C00008F808203F48
:1013B000200007183F00E01008080810E0000F1098
:1013C000202020100F0008F808080808F000203F2F
:1013D000210101010000E01008080810E0000F18CA
:1013E000242438504F0008F8888888887000203FEF
:1013F0002000030C302000708808080838000038EE
:10140000202121221C00180808F8080818000000F4
:10141000203F2000000008F808000008F808001F1E
:10142000202020201F000878880000C8380800000D
:1014300007380E010000F80800F80008F800033C27
:101440000700073C030008186880806818082030EF
:101450002C03032C30200838C800C83808000000CE
:10146000203F2000000010080808C8380800203875
:10147000262120201800000000FE020202000000C9
:10148000007F40404000000C30C000000000000021
:1014900000010638C00000020202FE000000004009
:1014A00040407F000000000004020202040000002F
:1014B000000000000000000000000000000080802C
:1014C0008080808080800002020400000000000014
:1014D00000000000000000008080808000000019F3
:1014E000242222223F2008F8008080000000003FD4
:1014F000112020110E000000008080800000000EEE
:10150000112020201100000000808088F800000ECB
:10151000112020103F200000808080800000001FEC
:10152000222222221300008080F088888818002060
:10153000203F202000000000808080808000006B21
:1015400094949493600008F8008080800000203F0D
:10155000210000203F20008098980000000000201B
:10156000203F20200000000000809898000000C06C
:101570008080807F000008F8000080808000203F8D
:1015800024022D302000000808F800000000002090
:10159000203F202000008080808080808000203FCD
:1015A00020003F20003F8080008080800000203F9E
:1015B000210000203F200000808080800000001F6C
:1015C000202020201F00808000808000000080FFFD
:1015D000A12020110E000000008080808000000EFD
:1015E000112020A0FF80808080008080800020204B
:1015F0003F212000010000008080808080000033B7
:10160000242424241900008080E080800000000051
:10161000001F202000008080000000808000001F4C
:10162000202020103F2080808000008080800001EA
:101630000E300806010080800080008080800F301E
:101640000C030C300F0000808000808080000020A0
:10165000312E0E31200080808000008080808081CB
:101660008E7018060100008080808080800000213C
:10167000302C2221300000000000807C020200009B
:101680000000003F404000000000FF00000000009C
:101690000000FF0000000002027C8000000000400B
:1016A000403F0000000000060101020204040000A7
:1016B00000000000000008070100000064000000B6
:1016C00020000100010000000000000000000000F8
:1016D00000000000000000001000000000010000F9
:1016E00003000000000000003400C44100000000BE
:1016F0000017000000002020680100002801000001
:04000005000000C136
:00000001FF
